:100000000C9436000C9472010C94A3010C945E00C5
:100010000C945E000C945E000C945E000C945E00E8
:100020000C945E000C945E000C945E000C945E00D8
:100030000C945E000C945E000C945E000C945E00C8
:100040000C945E000C945E000C945E000C945E00B8
:100050000C945E000C945E000C945E000C945E00A8
:100060000C945E000C945E005801650111241FBEC3
:10007000CFEFD8E0DEBFCDBF11E0A0E0B1E0E4E417
:10008000F9E002C005900D92AE31B107D9F721E039
:10009000AEE1B1E001C01D92AC32B207E1F710E071
:1000A000C5E3D0E004C02197FE010E948F04C43351
:1000B000D107C9F70E9405010C9495040C94000027
:1000C000CF93DF93CDB7DEB769E68EE191E00E9472
:1000D000070481E0809321010000DF91CF91089512
:1000E000CF93DF93CDB7DEB778940000DF91CF9147
:1000F0000895CF93DF9300D000D0CDB7DEB79C83B7
:100100008B838B819C819C01215031093C832B8303
:1001100021E0892B09F420E0222391F08FEF9FEF5B
:100120009A83898389819A819C01215031093A837C
:10013000298321E0892B09F420E0222311F3F2CF57
:1001400000000F900F900F900F90DF91CF910895C6
:10015000CF93DF93CDB7DEB78EE191E00E942F04FD
:10016000682F8EE191E00E94070480911F01909119
:10017000200181309105D9F0823091051CF4892B42
:1001800039F03FC08230910551F10397E9F039C051
:1001900080912101882391F182E291E00E9406037F
:1001A00081E090E09093200180931F0127C08AE0B6
:1001B00090E00E9479001092210182E090E09093FB
:1001C000200180931F011DC08AE090E00E94790009
:1001D000109221011092200110921F0112C08091F3
:1001E0002101882369F082E291E00E94240383E0E8
:1001F00090E09093200180931F0102C0000001C095
:1002000000000000DF91CF910895CF93DF93CDB729
:10021000DEB70E9470000E94A800FDCFCF93DF934D
:1002200000D000D0CDB7DEB79A8389837C836B83FF
:1002300089819A81019701F58B819C810196E1F476
:1002400040E05BE460E070E08EE191E00E946403D6
:1002500020E030E040E050E065E070E082E291E0D4
:100260000E94D40120E630E045E050E062E070E01A
:1002700083E291E00E94D40189819A81892B81F4E3
:100280008B819C81019661F483E291E00E94DD0202
:1002900082E291E00E94DD028EE191E00E94FA0389
:1002A00000000F900F900F900F90DF91CF91089565
:1002B000CF93DF93CDB7DEB76FEF7FEF81E090E0B4
:1002C0000E940E01DF91CF910895CF93DF93CDB7B8
:1002D000DEB76FEF7FEF80E090E00E940E01DF91CC
:1002E000CF9108951F920F9200905F000F921124FA
:1002F0002F933F934F935F936F937F938F939F932E
:10030000AF93BF93EF93FF93CF93DF93CDB7DEB758
:100310008091280190912901FC0109950000DF914D
:10032000CF91FF91EF91BF91AF919F918F917F916D
:100330006F915F914F913F912F910F9000925F00CD
:100340000F901F9018951F920F9200905F000F92D0
:1003500011242F933F934F935F936F937F938F93CA
:100360009F93AF93BF93EF93FF93CF93DF93CDB75B
:10037000DEB780912A0190912B01FC0109950000C4
:10038000DF91CF91FF91EF91BF91AF919F918F91AD
:100390007F916F915F914F913F912F910F900092BC
:1003A0005F000F901F901895CF93DF93CDB7DEB706
:1003B00029970FB6F894DEBF0FBECDBF9B838A830B
:1003C0007D836C835F834E833987288781E090E04B
:1003D0000C8002C0880F991F0A94E2F7282F8A81A7
:1003E0009B81FC0120838E819F81892B91F48091D8
:1003F0000301909104012091030130910401F9015E
:1004000040812A813B81F9012081242BFC0120833A
:10041000CAC08E819F810197A1F4809103019091C0
:1004200004012091030130910401F9012081422F40
:100430002A813B81F901208120952423FC0120831E
:10044000B2C08E819F81029791F5809103019091B6
:1004500004012091030130910401F9012081422F10
:100460002A813B81F901208120952423FC012083EE
:1004700080910101909102012091010130910201CE
:10048000F90140812A813B81F9012081242BFC0163
:10049000208380910B0190910C0120910B013091F0
:1004A0000C01F90120812F7EFC0120837CC08E810C
:1004B000835089838091030190910401209103016D
:1004C00030910401F9012081422F2A813B81F901F9
:1004D000208120952423FC012083809101019091AB
:1004E00002012091010130910201F90140812A812C
:1004F0003B81F9012081242BFC0120838C819D818B
:10050000029721F588859985909329018093280188
:100510008091070190910801209107013091080115
:10052000F9012081322F3C7F2981232BFC0120837C
:100530008091090190910A012091090130910A01ED
:10054000F90120812160FC0120832DC08C819D81D7
:10055000039749F58885998590932B0180932A010B
:1005600080910701909108012091070130910801C5
:10057000F9012081422F437F2981222F30E0220F71
:10058000331F220F331F242BFC012083809109018C
:1005900090910A012091090130910A01F90120810D
:1005A0002260FC012083000029960FB6F894DEBF7C
:1005B0000FBECDBFDF91CF910895CF93DF9300D0D1
:1005C000CDB7DEB79A83898300000F900F90DF913B
:1005D000CF910895CF93DF9300D01F92CDB7DEB7B0
:1005E0009A8389836B838B81882329F089819A81FF
:1005F0000E94060304C089819A810E94240300009E
:100600000F900F900F90DF91CF910895CF93DF93CC
:1006100000D0CDB7DEB79A83898380910101909194
:1006200002012091010130910201F90140812981EB
:100630003A81F9012081242BFC01208300000F90D6
:100640000F90DF91CF910895CF93DF9300D0CDB776
:10065000DEB79A83898380910101909102012091F4
:10066000010130910201F9012081422F29813A8153
:10067000F901208120952423FC01208300000F90A4
:100680000F90DF91CF910895CF93DF9300D01F9209
:10069000CDB7DEB79B838A838091050190910601D7
:1006A000FC01808189838A819B81FC019081898101
:1006B0008923882311F081E001C080E00F900F9022
:1006C0000F90DF91CF910895EF92FF920F931F93B8
:1006D000CF93DF93CDB7DEB728970FB6F894DEBF80
:1006E0000FBECDBF9C838B834D835E836F837887E2
:1006F0008D819E819A8389832091190130911A01FD
:1007000040911B0150911C018D819E81AF81B88564
:10071000880F991FAA1FBB1F880F991FAA1FBB1FF5
:10072000880F991FAA1FBB1F880F991FAA1FBB1FE5
:100730007C018D01CA01B901A80197010E944E04F4
:10074000DA01C90101979A83898380910D01909103
:100750000E0129813A81232F330F330BFC012083B3
:1007600080910F01909110012981FC0120838091DB
:1007700013019091140128E1FC012083809115015F
:100780009091160126E0FC012083000028960FB608
:10079000F894DEBF0FBECDBFDF91CF911F910F91B7
:1007A000FF90EF900895CF93DF9300D000D0CDB7A6
:1007B000DEB79A8389837C836B838B819C81FC0168
:1007C0008081882379F08B819C819C012F5F3F4F32
:1007D0003C832B83FC01208189819A81622F0E94B6
:1007E0000704EBCF00000F900F900F900F90DF9158
:1007F000CF910895CF93DF9300D0CDB7DEB79A8322
:10080000898300000F900F90DF91CF910895CF93CF
:10081000DF9300D01F92CDB7DEB79A8389836B83B5
:100820008091110190911201FC018081882F90E04C
:100830008072992721E0892B09F020E0222309F01A
:10084000EFCF80911701909118012B81FC0120833B
:1008500000000F900F900F90DF91CF910895CF93EC
:10086000DF9300D0CDB7DEB79A83898380911101E1
:1008700090911201FC0180818095881F8827881F34
:10088000882309F0F3CF8091170190911801FC01A2
:1008900080810F900F90DF91CF910895052E97FBE7
:1008A0001EF400940E94650457FD07D00E946D0459
:1008B00007FC03D04EF40C94650450954095309598
:1008C00021953F4F4F4F5F4F0895909580957095BC
:1008D00061957F4F8F4F9F4F0895A1E21A2EAA1B5B
:1008E000BB1BFD010DC0AA1FBB1FEE1FFF1FA217E0
:1008F000B307E407F50720F0A21BB30BE40BF50BDD
:10090000661F771F881F991F1A9469F76095709565
:10091000809590959B01AC01BD01CF010895EE0F2C
:10092000FF1F0590F491E02D099410E0C5E3D0E09D
:1009300004C0FE010E948F042196C633D107C9F777
:04094000F894FFCF59
:10094400012B002A00290069003D005500C500C4A0
:0E09540000C000C100C200C6000024F4000074
:00000001FF
