:100000000C9438000C942C010C945D010C9460004D
:100010000C9460000C9460000C9460000C946000E0
:100020000C9460000C9460000C9460000C946000D0
:100030000C9460000C9460000C9460000C946000C0
:100040000C9460000C9460000C941E030C9431031B
:100050000C9460000C9460000C9460000C946000A0
:100060000C9460000C9460001201C3041F01D004C2
:1000700011241FBECFEFD8E0DEBFCDBF11E0A0E05E
:10008000B1E0E8E7FCE002C005900D92AE31B107A7
:10009000D9F721E0AEE1B1E001C01D92AC33B20767
:1000A000E1F710E0C6E3D0E004C02197FE010E9412
:1000B0002906C433D107C9F70E94BF000C942F064C
:1000C0000C940000CF93DF93CDB7DEB769E68EE1E5
:1000D00091E00E94010481E0809321010000DF9102
:1000E000CF910895CF93DF93CDB7DEB7789400001A
:1000F000DF91CF910895CF93DF9300D000D0CDB79B
:10010000DEB79C838B838B819C819C0121503109BC
:100110003C832B8321E0892B09F420E0222391F0FA
:100120008FEF9FEF9A83898389819A819C01215067
:1001300031093A83298321E0892B09F420E0222325
:1001400011F3F2CF00000F900F900F900F90DF91FE
:10015000CF910895CF93DF93CDB7DEB781E090E0E4
:100160000E947B008EE191E00E947A04682F8EE16C
:1001700091E00E9429040000DF91CF910895CF9370
:10018000DF93CDB7DEB70E9472000E94AA00FDCFB8
:10019000CF93DF9300D000D0CDB7DEB79A838983A9
:1001A0007C836B8389819A81019701F58B819C8186
:1001B0000196E1F440E05BE460E070E08EE191E004
:1001C0000E945E0320E030E040E050E065E070E037
:1001D00082E291E00E948E0122E630E045E050E0AC
:1001E00062E070E083E291E00E948E0189819A8151
:1001F000892B81F48B819C81019661F483E291E0EB
:100200000E94970282E291E00E9497028EE191E0C3
:100210000E94F40300000F900F900F900F90DF9159
:10022000CF910895CF93DF93CDB7DEB76FEF7FEF18
:1002300081E090E00E94C800DF91CF910895CF93B4
:10024000DF93CDB7DEB76FEF7FEF80E090E00E94E5
:10025000C800DF91CF9108951F920F9200905F0028
:100260000F9211242F933F934F935F936F937F933C
:100270008F939F93AF93BF93EF93FF93CF93DF93AE
:10028000CDB7DEB78091280190912901FC01099535
:100290000000DF91CF91FF91EF91BF91AF919F91BE
:1002A0008F917F916F915F914F913F912F910F901F
:1002B00000925F000F901F9018951F920F92009070
:1002C0005F000F9211242F933F934F935F936F938F
:1002D0007F938F939F93AF93BF93EF93FF93CF93AE
:1002E000DF93CDB7DEB780912A0190912B01FC01FD
:1002F00009950000DF91CF91FF91EF91BF91AF91F0
:100300009F918F917F916F915F914F913F912F912D
:100310000F9000925F000F901F901895CF93DF937E
:10032000CDB7DEB729970FB6F894DEBF0FBECDBFAD
:100330009B838A837D836C835F834E833987288781
:1003400081E090E00C8002C0880F991F0A94E2F7C8
:10035000282F8A819B81FC0120838E819F81892B9C
:1003600091F4809103019091040120910301309157
:100370000401F90140812A813B81F9012081242B6C
:10038000FC012083CAC08E819F810197A1F48091D6
:100390000301909104012091030130910401F901BE
:1003A0002081422F2A813B81F9012081209524233D
:1003B000FC012083B2C08E819F81029791F58091CC
:1003C0000301909104012091030130910401F9018E
:1003D0002081422F2A813B81F9012081209524230D
:1003E000FC01208380910101909102012091010183
:1003F00030910201F90140812A813B81F90120817C
:10040000242BFC01208380910B0190910C01209101
:100410000B0130910C01F90120812F7EFC0120831A
:100420007CC08E8183508983809103019091040167
:100430002091030130910401F9012081422F2A818A
:100440003B81F901208120952423FC0120838091A8
:100450000101909102012091010130910201F90105
:1004600040812A813B81F9012081242BFC012083DA
:100470008C819D81029721F588859985909329012A
:100480008093280180910701909108012091070134
:1004900030910801F9012081322F3C7F2981232BE3
:1004A000FC0120838091090190910A0120910901AA
:1004B00030910A01F90120812160FC0120832DC0C7
:1004C0008C819D81039749F58885998590932B01AF
:1004D00080932A01809107019091080120910701E2
:1004E00030910801F9012081422F437F2981222F79
:1004F00030E0220F331F220F331F242BFC012083F7
:100500008091090190910A012091090130910A011D
:10051000F90120812260FC012083000029960FB69A
:10052000F894DEBF0FBECDBFDF91CF910895CF937A
:10053000DF9300D0CDB7DEB79A83898300000F9098
:100540000F90DF91CF910895CF93DF9300D01F924A
:10055000CDB7DEB79A8389836B838B81882329F09B
:1005600089819A810E94C00204C089819A810E9477
:10057000DE0200000F900F900F90DF91CF91089551
:10058000CF93DF9300D0CDB7DEB79A838983809174
:100590000101909102012091010130910201F901C4
:1005A000408129813A81F9012081242BFC0120839B
:1005B00000000F900F90DF91CF910895CF93DF93BC
:1005C00000D0CDB7DEB79A838983809101019091E5
:1005D00002012091010130910201F9012081422F95
:1005E00029813A81F901208120952423FC0120836F
:1005F00000000F900F90DF91CF910895CF93DF937C
:1006000000D01F92CDB7DEB79B838A83809105010E
:1006100090910601FC01808189838A819B81FC0184
:10062000908189818923882311F081E001C080E0D5
:100630000F900F900F90DF91CF9108951F920F921E
:1006400000905F000F921124CF93DF93CDB7DEB7F8
:100650000000DF91CF910F9000925F000F901F90EC
:1006600018951F920F9200905F000F9211242F9304
:100670003F934F935F936F937F938F939F93AF932A
:10068000BF93EF93FF93CF93DF93CDB7DEB70E9475
:100690004D040000DF91CF91FF91EF91BF91AF9199
:1006A0009F918F917F916F915F914F913F912F918A
:1006B0000F9000925F000F901F901895EF92FF929D
:1006C0000F931F93CF93DF93CDB7DEB728970FB665
:1006D000F894DEBF0FBECDBF9C838B834D835E83BA
:1006E0006F8378878D819E819A83898320911901F8
:1006F00030911A0140911B0150911C018D819E8106
:10070000AF81B885880F991FAA1FBB1F880F991F3B
:10071000AA1FBB1F880F991FAA1FBB1F880F991FF5
:10072000AA1FBB1F7C018D01CA01B901A801970155
:100730000E94E805DA01C90101979A8389838091B3
:100740000D0190910E0129813A81232F330F330B34
:10075000FC01208380910F01909110012981FC01FF
:100760002083809113019091140128E1FC012083E2
:10077000809115019091160126E0FC012083000074
:1007800028960FB6F894DEBF0FBECDBFDF91CF9194
:100790001F910F91FF90EF900895CF93DF9300D0BA
:1007A00000D0CDB7DEB79A8389837C836B838B813E
:1007B0009C81FC018081882379F08B819C819C0144
:1007C0002F5F3F4F3C832B83FC01208189819A81DD
:1007D000622F0E940104EBCF00000F900F900F904A
:1007E0000F90DF91CF910895CF93DF9300D0CDB7D5
:1007F000DEB79A83898300000F900F90DF91CF912D
:100800000895CF93DF9300D01F92CDB7DEB79A83C0
:1008100089836B838091110190911201FC01808189
:10082000882F90E08072992721E0892B09F020E041
:10083000222309F0EFCF80911701909118012B81AD
:10084000FC01208300000F900F900F90DF91CF915B
:100850000895CF93DF9300D01F92CDB7DEB79A8370
:1008600089836B83CE010396BC018CE291E00E94E8
:10087000F90480911301909114012091130130919A
:100880001401F90120812062FC01208300000F90F7
:100890000F900F90DF91CF9108950F931F93CF93F7
:1008A000DF93CDB7DEB78CE291E00E946405982F0C
:1008B00081E08927882359F00091170110911801D0
:1008C0008CE291E00E947A05F80180830DC080914E
:1008D0001301909114012091130130911401F90139
:1008E00020812F7DFC0120830000DF91CF911F919B
:1008F0000F910895CF93DF9300D0CDB7DEB79A83E1
:1009000089838091110190911201FC018081809571
:10091000881F8827881F882309F0F3CF809117014B
:1009200090911801FC0180810F900F90DF91CF9181
:100930000895CF93DF9300D000D0CDB7DEB79A8370
:1009400089837C836B8389819A81019741F48B81B0
:100950009C81019621F48CE291E00E94DD04898162
:100960009A81892B41F48B819C81019621F48CE240
:1009700091E00E94DB0500000F900F900F900F9008
:10098000DF91CF910895CF93DF93CDB7DEB76FEFAF
:100990007FEF81E090E00E949904DF91CF9108956C
:1009A000CF93DF93CDB7DEB76FEF7FEF80E090E0BE
:1009B0000E949904DF91CF910895CF93DF9300D0E7
:1009C000CDB7DEB79A83898389819A81FC01118230
:1009D000108289819A81FC011586148689819A8109
:1009E000FC011786168600000F900F90DF91CF91C3
:1009F0000895CF93DF9300D000D0CDB7DEB79A83B0
:100A000089837C836B8389819A81FC0186859785A4
:100A10002B813C81F901408129813A81820F931F0A
:100A20000296FC01408389819A81FC018685978525
:100A30009C012F5F3F4F89819A81FC013787268770
:100A400089819A810E94C505982F81E08927882392
:100A500071F089819A81FC01808191819C012F5FD5
:100A60003F4F89819A81FC01318320830DC08981A8
:100A70009A81FC01848595859C012F5F3F4F898178
:100A80009A81FC013587248789819A81FC018485BC
:100A900095850A9729F489819A81FC011586148627
:100AA00089819A81FC01868597850A9729F4898135
:100AB0009A81FC011786168600000F900F900F9008
:100AC0000F90DF91CF910895CF93DF9300D0CDB7F2
:100AD000DEB79A83898389819A81FC018081918123
:100AE000892B11F481E001C080E00F900F90DF911D
:100AF000CF910895CF93DF9300D01F92CDB7DEB78B
:100B00009B838A838A819B810E946405982F81E060
:100B10008927882399F18A819B81FC0184859585A9
:100B20002A813B81820F931F0296FC018081898379
:100B30008A819B81FC01848595859C012F5F3F4FB5
:100B40008A819B81FC01358724878A819B81FC01F6
:100B5000808191819C01215031098A819B81FC0116
:100B6000318320838A819B81FC01848595850A9746
:100B700029F48A819B81FC011586148689810F9056
:100B80000F900F90DF91CF910895CF93DF9300D016
:100B9000CDB7DEB79A83898389819A81FC018081F0
:100BA000918121E00A9709F020E0822F0F900F90A9
:100BB000DF91CF910895CF93DF9300D0CDB7DEB70B
:100BC0009A83898300000F900F90DF91CF91089551
:100BD000052E97FB1EF400940E94FF0557FD07D0D9
:100BE0000E94070607FC03D04EF40C94FF055095B5
:100BF0004095309521953F4F4F4F5F4F0895909509
:100C00008095709561957F4F8F4F9F4F0895A1E21A
:100C10001A2EAA1BBB1BFD010DC0AA1FBB1FEE1F76
:100C2000FF1FA217B307E407F50720F0A21BB30BC1
:100C3000E40BF50B661F771F881F991F1A9469F73D
:100C400060957095809590959B01AC01BD01CF0199
:100C50000895EE0FFF1F0590F491E02D099410E028
:100C6000C6E3D0E004C0FE010E9429062196C833E5
:080C7000D107C9F7F894FFCF8A
:100C7800012B002A00290069003D005500C500C469
:0E0C880000C000C100C200C6000024F400003D
:00000001FF
